{
  "_format": "hh-sol-artifact-1",
  "contractName": "CreatorToken",
  "sourceName": "contracts/CreateToken.sol",
  "abi": [
    {
      "inputs": [
        {
          "internalType": "string",
          "name": "name_",
          "type": "string"
        },
        {
          "internalType": "string",
          "name": "symbol_",
          "type": "string"
        },
        {
          "internalType": "address",
          "name": "creator_",
          "type": "address"
        },
        {
          "internalType": "uint256",
          "name": "basePrice_",
          "type": "uint256"
        },
        {
          "internalType": "uint256",
          "name": "slope_",
          "type": "uint256"
        }
      ],
      "stateMutability": "nonpayable",
      "type": "constructor"
    },
    {
      "anonymous": false,
      "inputs": [
        {
          "indexed": true,
          "internalType": "address",
          "name": "owner",
          "type": "address"
        },
        {
          "indexed": true,
          "internalType": "address",
          "name": "spender",
          "type": "address"
        },
        {
          "indexed": false,
          "internalType": "uint256",
          "name": "value",
          "type": "uint256"
        }
      ],
      "name": "Approval",
      "type": "event"
    },
    {
      "anonymous": false,
      "inputs": [
        {
          "indexed": true,
          "internalType": "address",
          "name": "buyer",
          "type": "address"
        },
        {
          "indexed": false,
          "internalType": "uint256",
          "name": "tokensMinted",
          "type": "uint256"
        },
        {
          "indexed": false,
          "internalType": "uint256",
          "name": "paid",
          "type": "uint256"
        }
      ],
      "name": "Bought",
      "type": "event"
    },
    {
      "anonymous": false,
      "inputs": [
        {
          "indexed": true,
          "internalType": "address",
          "name": "previousOwner",
          "type": "address"
        },
        {
          "indexed": true,
          "internalType": "address",
          "name": "newOwner",
          "type": "address"
        }
      ],
      "name": "OwnershipTransferred",
      "type": "event"
    },
    {
      "anonymous": false,
      "inputs": [
        {
          "indexed": true,
          "internalType": "address",
          "name": "seller",
          "type": "address"
        },
        {
          "indexed": false,
          "internalType": "uint256",
          "name": "tokensBurned",
          "type": "uint256"
        },
        {
          "indexed": false,
          "internalType": "uint256",
          "name": "refunded",
          "type": "uint256"
        }
      ],
      "name": "Sold",
      "type": "event"
    },
    {
      "anonymous": false,
      "inputs": [
        {
          "indexed": true,
          "internalType": "address",
          "name": "from",
          "type": "address"
        },
        {
          "indexed": true,
          "internalType": "address",
          "name": "to",
          "type": "address"
        },
        {
          "indexed": false,
          "internalType": "uint256",
          "name": "value",
          "type": "uint256"
        }
      ],
      "name": "Transfer",
      "type": "event"
    },
    {
      "inputs": [],
      "name": "FP",
      "outputs": [
        {
          "internalType": "uint256",
          "name": "",
          "type": "uint256"
        }
      ],
      "stateMutability": "view",
      "type": "function"
    },
    {
      "inputs": [
        {
          "internalType": "uint256",
          "name": "n",
          "type": "uint256"
        }
      ],
      "name": "_costToMint",
      "outputs": [
        {
          "internalType": "uint256",
          "name": "",
          "type": "uint256"
        }
      ],
      "stateMutability": "view",
      "type": "function"
    },
    {
      "inputs": [
        {
          "internalType": "address",
          "name": "owner",
          "type": "address"
        },
        {
          "internalType": "address",
          "name": "spender",
          "type": "address"
        }
      ],
      "name": "allowance",
      "outputs": [
        {
          "internalType": "uint256",
          "name": "",
          "type": "uint256"
        }
      ],
      "stateMutability": "view",
      "type": "function"
    },
    {
      "inputs": [
        {
          "internalType": "address",
          "name": "spender",
          "type": "address"
        },
        {
          "internalType": "uint256",
          "name": "amount",
          "type": "uint256"
        }
      ],
      "name": "approve",
      "outputs": [
        {
          "internalType": "bool",
          "name": "",
          "type": "bool"
        }
      ],
      "stateMutability": "nonpayable",
      "type": "function"
    },
    {
      "inputs": [
        {
          "internalType": "address",
          "name": "account",
          "type": "address"
        }
      ],
      "name": "balanceOf",
      "outputs": [
        {
          "internalType": "uint256",
          "name": "",
          "type": "uint256"
        }
      ],
      "stateMutability": "view",
      "type": "function"
    },
    {
      "inputs": [],
      "name": "basePrice",
      "outputs": [
        {
          "internalType": "uint256",
          "name": "",
          "type": "uint256"
        }
      ],
      "stateMutability": "view",
      "type": "function"
    },
    {
      "inputs": [
        {
          "internalType": "uint256",
          "name": "minTokens",
          "type": "uint256"
        }
      ],
      "name": "buyTokens",
      "outputs": [
        {
          "internalType": "uint256",
          "name": "",
          "type": "uint256"
        }
      ],
      "stateMutability": "payable",
      "type": "function"
    },
    {
      "inputs": [],
      "name": "creator",
      "outputs": [
        {
          "internalType": "address",
          "name": "",
          "type": "address"
        }
      ],
      "stateMutability": "view",
      "type": "function"
    },
    {
      "inputs": [],
      "name": "decimals",
      "outputs": [
        {
          "internalType": "uint8",
          "name": "",
          "type": "uint8"
        }
      ],
      "stateMutability": "view",
      "type": "function"
    },
    {
      "inputs": [
        {
          "internalType": "address",
          "name": "spender",
          "type": "address"
        },
        {
          "internalType": "uint256",
          "name": "subtractedValue",
          "type": "uint256"
        }
      ],
      "name": "decreaseAllowance",
      "outputs": [
        {
          "internalType": "bool",
          "name": "",
          "type": "bool"
        }
      ],
      "stateMutability": "nonpayable",
      "type": "function"
    },
    {
      "inputs": [
        {
          "internalType": "uint256",
          "name": "weiAmount",
          "type": "uint256"
        },
        {
          "internalType": "uint256",
          "name": "maxIter",
          "type": "uint256"
        }
      ],
      "name": "estimateTokensForWei",
      "outputs": [
        {
          "internalType": "uint256",
          "name": "",
          "type": "uint256"
        }
      ],
      "stateMutability": "view",
      "type": "function"
    },
    {
      "inputs": [
        {
          "internalType": "address",
          "name": "spender",
          "type": "address"
        },
        {
          "internalType": "uint256",
          "name": "addedValue",
          "type": "uint256"
        }
      ],
      "name": "increaseAllowance",
      "outputs": [
        {
          "internalType": "bool",
          "name": "",
          "type": "bool"
        }
      ],
      "stateMutability": "nonpayable",
      "type": "function"
    },
    {
      "inputs": [],
      "name": "name",
      "outputs": [
        {
          "internalType": "string",
          "name": "",
          "type": "string"
        }
      ],
      "stateMutability": "view",
      "type": "function"
    },
    {
      "inputs": [],
      "name": "owner",
      "outputs": [
        {
          "internalType": "address",
          "name": "",
          "type": "address"
        }
      ],
      "stateMutability": "view",
      "type": "function"
    },
    {
      "inputs": [],
      "name": "renounceOwnership",
      "outputs": [],
      "stateMutability": "nonpayable",
      "type": "function"
    },
    {
      "inputs": [],
      "name": "reserveBalance",
      "outputs": [
        {
          "internalType": "uint256",
          "name": "",
          "type": "uint256"
        }
      ],
      "stateMutability": "view",
      "type": "function"
    },
    {
      "inputs": [
        {
          "internalType": "uint256",
          "name": "amount",
          "type": "uint256"
        }
      ],
      "name": "sellTokens",
      "outputs": [
        {
          "internalType": "uint256",
          "name": "",
          "type": "uint256"
        }
      ],
      "stateMutability": "nonpayable",
      "type": "function"
    },
    {
      "inputs": [],
      "name": "slope",
      "outputs": [
        {
          "internalType": "uint256",
          "name": "",
          "type": "uint256"
        }
      ],
      "stateMutability": "view",
      "type": "function"
    },
    {
      "inputs": [],
      "name": "symbol",
      "outputs": [
        {
          "internalType": "string",
          "name": "",
          "type": "string"
        }
      ],
      "stateMutability": "view",
      "type": "function"
    },
    {
      "inputs": [],
      "name": "totalSupply",
      "outputs": [
        {
          "internalType": "uint256",
          "name": "",
          "type": "uint256"
        }
      ],
      "stateMutability": "view",
      "type": "function"
    },
    {
      "inputs": [
        {
          "internalType": "address",
          "name": "recipient",
          "type": "address"
        },
        {
          "internalType": "uint256",
          "name": "amount",
          "type": "uint256"
        }
      ],
      "name": "transfer",
      "outputs": [
        {
          "internalType": "bool",
          "name": "",
          "type": "bool"
        }
      ],
      "stateMutability": "nonpayable",
      "type": "function"
    },
    {
      "inputs": [
        {
          "internalType": "address",
          "name": "sender",
          "type": "address"
        },
        {
          "internalType": "address",
          "name": "recipient",
          "type": "address"
        },
        {
          "internalType": "uint256",
          "name": "amount",
          "type": "uint256"
        }
      ],
      "name": "transferFrom",
      "outputs": [
        {
          "internalType": "bool",
          "name": "",
          "type": "bool"
        }
      ],
      "stateMutability": "nonpayable",
      "type": "function"
    },
    {
      "inputs": [
        {
          "internalType": "address",
          "name": "newOwner",
          "type": "address"
        }
      ],
      "name": "transferOwnership",
      "outputs": [],
      "stateMutability": "nonpayable",
      "type": "function"
    },
    {
      "inputs": [
        {
          "internalType": "uint256",
          "name": "amount",
          "type": "uint256"
        },
        {
          "internalType": "address",
          "name": "to",
          "type": "address"
        }
      ],
      "name": "withdraw",
      "outputs": [],
      "stateMutability": "nonpayable",
      "type": "function"
    },
    {
      "stateMutability": "payable",
      "type": "receive"
    }
  ],
  "bytecode": "0x60806040523480156200001157600080fd5b50604051620036aa380380620036aa83398181016040528101906200003791906200052a565b848481600390816200004a919062000831565b5080600490816200005c919062000831565b5050506200007f62000073620000ea60201b60201c565b620000f260201b60201c565b82600960006101000a81548173ffffffffffffffffffffffffffffffffffffffff021916908373ffffffffffffffffffffffffffffffffffffffff1602179055508160068190555080600781905550620000df83620001b860201b60201c565b505050505062000a33565b600033905090565b6000600560009054906101000a900473ffffffffffffffffffffffffffffffffffffffff16905081600560006101000a81548173ffffffffffffffffffffffffffffffffffffffff021916908373ffffffffffffffffffffffffffffffffffffffff1602179055508173ffffffffffffffffffffffffffffffffffffffff168173ffffffffffffffffffffffffffffffffffffffff167f8be0079c531659141344cd1fd0a4f28419497f9722a3daafe3b4186f6b6457e060405160405180910390a35050565b620001c8620000ea60201b60201c565b73ffffffffffffffffffffffffffffffffffffffff16620001ee620002cd60201b60201c565b73ffffffffffffffffffffffffffffffffffffffff161462000247576040517f08c379a00000000000000000000000000000000000000000000000000000000081526004016200023e9062000979565b60405180910390fd5b600073ffffffffffffffffffffffffffffffffffffffff168173ffffffffffffffffffffffffffffffffffffffff1603620002b9576040517f08c379a0000000000000000000000000000000000000000000000000000000008152600401620002b09062000a11565b60405180910390fd5b620002ca81620000f260201b60201c565b50565b6000600560009054906101000a900473ffffffffffffffffffffffffffffffffffffffff16905090565b6000604051905090565b600080fd5b600080fd5b600080fd5b600080fd5b6000601f19601f8301169050919050565b7f4e487b7100000000000000000000000000000000000000000000000000000000600052604160045260246000fd5b620003608262000315565b810181811067ffffffffffffffff8211171562000382576200038162000326565b5b80604052505050565b600062000397620002f7565b9050620003a5828262000355565b919050565b600067ffffffffffffffff821115620003c857620003c762000326565b5b620003d38262000315565b9050602081019050919050565b60005b8381101562000400578082015181840152602081019050620003e3565b60008484015250505050565b6000620004236200041d84620003aa565b6200038b565b90508281526020810184848401111562000442576200044162000310565b5b6200044f848285620003e0565b509392505050565b600082601f8301126200046f576200046e6200030b565b5b8151620004818482602086016200040c565b91505092915050565b600073ffffffffffffffffffffffffffffffffffffffff82169050919050565b6000620004b7826200048a565b9050919050565b620004c981620004aa565b8114620004d557600080fd5b50565b600081519050620004e981620004be565b92915050565b6000819050919050565b6200050481620004ef565b81146200051057600080fd5b50565b6000815190506200052481620004f9565b92915050565b600080600080600060a0868803121562000549576200054862000301565b5b600086015167ffffffffffffffff8111156200056a576200056962000306565b5b620005788882890162000457565b955050602086015167ffffffffffffffff8111156200059c576200059b62000306565b5b620005aa8882890162000457565b9450506040620005bd88828901620004d8565b9350506060620005d08882890162000513565b9250506080620005e38882890162000513565b9150509295509295909350565b600081519050919050565b7f4e487b7100000000000000000000000000000000000000000000000000000000600052602260045260246000fd5b600060028204905060018216806200064357607f821691505b602082108103620006595762000658620005fb565b5b50919050565b60008190508160005260206000209050919050565b60006020601f8301049050919050565b600082821b905092915050565b600060088302620006c37fffffffffffffffffffffffffffffffffffffffffffffffffffffffffffffffff8262000684565b620006cf868362000684565b95508019841693508086168417925050509392505050565b6000819050919050565b6000620007126200070c6200070684620004ef565b620006e7565b620004ef565b9050919050565b6000819050919050565b6200072e83620006f1565b620007466200073d8262000719565b84845462000691565b825550505050565b600090565b6200075d6200074e565b6200076a81848462000723565b505050565b5b8181101562000792576200078660008262000753565b60018101905062000770565b5050565b601f821115620007e157620007ab816200065f565b620007b68462000674565b81016020851015620007c6578190505b620007de620007d58562000674565b8301826200076f565b50505b505050565b600082821c905092915050565b60006200080660001984600802620007e6565b1980831691505092915050565b6000620008218383620007f3565b9150826002028217905092915050565b6200083c82620005f0565b67ffffffffffffffff81111562000858576200085762000326565b5b6200086482546200062a565b6200087182828562000796565b600060209050601f831160018114620008a9576000841562000894578287015190505b620008a0858262000813565b86555062000910565b601f198416620008b9866200065f565b60005b82811015620008e357848901518255600182019150602085019450602081019050620008bc565b86831015620009035784890151620008ff601f891682620007f3565b8355505b6001600288020188555050505b505050505050565b600082825260208201905092915050565b7f4f776e61626c653a2063616c6c6572206973206e6f7420746865206f776e6572600082015250565b60006200096160208362000918565b91506200096e8262000929565b602082019050919050565b60006020820190508181036000830152620009948162000952565b9050919050565b7f4f776e61626c653a206e6577206f776e657220697320746865207a65726f206160008201527f6464726573730000000000000000000000000000000000000000000000000000602082015250565b6000620009f960268362000918565b915062000a06826200099b565b604082019050919050565b6000602082019050818103600083015262000a2c81620009ea565b9050919050565b612c678062000a436000396000f3fe60806040526004361061014e5760003560e01c8063715018a6116100b6578063a457c2d71161006f578063a457c2d7146104d3578063a9059cbb14610510578063c258d8b71461054d578063c7876ea41461058a578063dd62ed3e146105b5578063f2fde38b146105f25761016d565b8063715018a6146103d357806383caf275146103ea5780638da5cb5b1461041557806395d89b411461044057806395ebb3af1461046b578063a10954fe146104a85761016d565b8063313ce56711610108578063313ce567146102965780633610724e146102c157806339509351146102f1578063636284b11461032e5780636c11bcd31461035957806370a08231146103965761016d565b8062f714ce1461017257806302d05d3f1461019b57806306fdde03146101c6578063095ea7b3146101f157806318160ddd1461022e57806323b872dd146102595761016d565b3661016d5734600860008282546101659190611c4f565b925050819055005b600080fd5b34801561017e57600080fd5b5061019960048036038101906101949190611d12565b61061b565b005b3480156101a757600080fd5b506101b0610740565b6040516101bd9190611d61565b60405180910390f35b3480156101d257600080fd5b506101db610766565b6040516101e89190611e0c565b60405180910390f35b3480156101fd57600080fd5b5061021860048036038101906102139190611e2e565b6107f8565b6040516102259190611e89565b60405180910390f35b34801561023a57600080fd5b50610243610816565b6040516102509190611eb3565b60405180910390f35b34801561026557600080fd5b50610280600480360381019061027b9190611ece565b610820565b60405161028d9190611e89565b60405180910390f35b3480156102a257600080fd5b506102ab610918565b6040516102b89190611f3d565b60405180910390f35b6102db60048036038101906102d69190611f58565b610921565b6040516102e89190611eb3565b60405180910390f35b3480156102fd57600080fd5b5061031860048036038101906103139190611e2e565b610ae6565b6040516103259190611e89565b60405180910390f35b34801561033a57600080fd5b50610343610b92565b6040516103509190611eb3565b60405180910390f35b34801561036557600080fd5b50610380600480360381019061037b9190611f58565b610b9e565b60405161038d9190611eb3565b60405180910390f35b3480156103a257600080fd5b506103bd60048036038101906103b89190611f85565b610e05565b6040516103ca9190611eb3565b60405180910390f35b3480156103df57600080fd5b506103e8610e4d565b005b3480156103f657600080fd5b506103ff610ed5565b60405161040c9190611eb3565b60405180910390f35b34801561042157600080fd5b5061042a610edb565b6040516104379190611d61565b60405180910390f35b34801561044c57600080fd5b50610455610f05565b6040516104629190611e0c565b60405180910390f35b34801561047757600080fd5b50610492600480360381019061048d9190611fb2565b610f97565b60405161049f9190611eb3565b60405180910390f35b3480156104b457600080fd5b506104bd611031565b6040516104ca9190611eb3565b60405180910390f35b3480156104df57600080fd5b506104fa60048036038101906104f59190611e2e565b611037565b6040516105079190611e89565b60405180910390f35b34801561051c57600080fd5b5061053760048036038101906105329190611e2e565b611122565b6040516105449190611e89565b60405180910390f35b34801561055957600080fd5b50610574600480360381019061056f9190611f58565b611140565b6040516105819190611eb3565b60405180910390f35b34801561059657600080fd5b5061059f61122e565b6040516105ac9190611eb3565b60405180910390f35b3480156105c157600080fd5b506105dc60048036038101906105d79190611ff2565b611234565b6040516105e99190611eb3565b60405180910390f35b3480156105fe57600080fd5b5061061960048036038101906106149190611f85565b6112bb565b005b6106236113b2565b73ffffffffffffffffffffffffffffffffffffffff16610641610edb565b73ffffffffffffffffffffffffffffffffffffffff1614610697576040517f08c379a000000000000000000000000000000000000000000000000000000000815260040161068e9061207e565b60405180910390fd5b6008548211156106dc576040517f08c379a00000000000000000000000000000000000000000000000000000000081526004016106d3906120ea565b60405180910390fd5b81600860008282546106ee919061210a565b925050819055508073ffffffffffffffffffffffffffffffffffffffff166108fc839081150290604051600060405180830381858888f1935050505015801561073b573d6000803e3d6000fd5b505050565b600960009054906101000a900473ffffffffffffffffffffffffffffffffffffffff1681565b6060600380546107759061216d565b80601f01602080910402602001604051908101604052809291908181526020018280546107a19061216d565b80156107ee5780601f106107c3576101008083540402835291602001916107ee565b820191906000526020600020905b8154815290600101906020018083116107d157829003601f168201915b5050505050905090565b600061080c6108056113b2565b84846113ba565b6001905092915050565b6000600254905090565b600061082d848484611583565b6000600160008673ffffffffffffffffffffffffffffffffffffffff1673ffffffffffffffffffffffffffffffffffffffff16815260200190815260200160002060006108786113b2565b73ffffffffffffffffffffffffffffffffffffffff1673ffffffffffffffffffffffffffffffffffffffff168152602001908152602001600020549050828110156108f8576040517f08c379a00000000000000000000000000000000000000000000000000000000081526004016108ef90612210565b60405180910390fd5b61090c856109046113b2565b8584036113ba565b60019150509392505050565b60006012905090565b6000803411610965576040517f08c379a000000000000000000000000000000000000000000000000000000000815260040161095c9061227c565b60405180910390fd5b6000610973346103e8610f97565b9050828110156109b8576040517f08c379a00000000000000000000000000000000000000000000000000000000081526004016109af906122e8565b60405180910390fd5b60006109c382611140565b905034811115610a08576040517f08c379a00000000000000000000000000000000000000000000000000000000081526004016109ff90612354565b60405180910390fd5b8060086000828254610a1a9190611c4f565b9250508190555080341115610a825760008134610a37919061210a565b90503373ffffffffffffffffffffffffffffffffffffffff166108fc829081150290604051600060405180830381858888f19350505050158015610a7f573d6000803e3d6000fd5b50505b610a8c3383611802565b3373ffffffffffffffffffffffffffffffffffffffff167fa9a40dec7a304e5915d11358b968c1e8d365992abf20f82285d1df1b30c8e24c8383604051610ad4929190612374565b60405180910390a28192505050919050565b6000610b88610af36113b2565b848460016000610b016113b2565b73ffffffffffffffffffffffffffffffffffffffff1673ffffffffffffffffffffffffffffffffffffffff16815260200190815260200160002060008873ffffffffffffffffffffffffffffffffffffffff1673ffffffffffffffffffffffffffffffffffffffff16815260200190815260200160002054610b839190611c4f565b6113ba565b6001905092915050565b670de0b6b3a764000081565b6000808211610be2576040517f08c379a0000000000000000000000000000000000000000000000000000000008152600401610bd9906123e9565b60405180910390fd5b81610bec33610e05565b1015610c2d576040517f08c379a0000000000000000000000000000000000000000000000000000000008152600401610c2490612455565b60405180910390fd5b6000610c37611961565b90506103e8831115610c7e576040517f08c379a0000000000000000000000000000000000000000000000000000000008152600401610c75906124c1565b60405180910390fd5b6000805b84811015610cfb57600060018285610c9a919061210a565b610ca4919061210a565b600754610cb191906124e1565b600654610cbe9190611c4f565b90506000670de0b6b3a764000082610cd69190612552565b90508084610ce49190611c4f565b935050508080610cf390612583565b915050610c82565b50600854811115610d41576040517f08c379a0000000000000000000000000000000000000000000000000000000008152600401610d3890612617565b60405180910390fd5b610d4b3385611970565b8060086000828254610d5d919061210a565b925050819055503373ffffffffffffffffffffffffffffffffffffffff166108fc829081150290604051600060405180830381858888f19350505050158015610daa573d6000803e3d6000fd5b503373ffffffffffffffffffffffffffffffffffffffff167fbac9694ac0daa55169abd117086fe32c89401d9a3b15dd1d34e55e0aa4e47a9d8583604051610df3929190612374565b60405180910390a28092505050919050565b60008060008373ffffffffffffffffffffffffffffffffffffffff1673ffffffffffffffffffffffffffffffffffffffff168152602001908152602001600020549050919050565b610e556113b2565b73ffffffffffffffffffffffffffffffffffffffff16610e73610edb565b73ffffffffffffffffffffffffffffffffffffffff1614610ec9576040517f08c379a0000000000000000000000000000000000000000000000000000000008152600401610ec09061207e565b60405180910390fd5b610ed36000611b46565b565b60075481565b6000600560009054906101000a900473ffffffffffffffffffffffffffffffffffffffff16905090565b606060048054610f149061216d565b80601f0160208091040260200160405190810160405280929190818152602001828054610f409061216d565b8015610f8d5780601f10610f6257610100808354040283529160200191610f8d565b820191906000526020600020905b815481529060010190602001808311610f7057829003601f168201915b5050505050905090565b600080610fa2611961565b905060008085905060005b85811015611024576000610fc084611140565b610fd5856001610fd09190611c4f565b611140565b610fdf919061210a565b905082811161100a578083610ff4919061210a565b92506001846110039190611c4f565b9350611010565b50611024565b50808061101c90612583565b915050610fad565b5081935050505092915050565b60085481565b600080600160006110466113b2565b73ffffffffffffffffffffffffffffffffffffffff1673ffffffffffffffffffffffffffffffffffffffff16815260200190815260200160002060008573ffffffffffffffffffffffffffffffffffffffff1673ffffffffffffffffffffffffffffffffffffffff16815260200190815260200160002054905082811015611103576040517f08c379a00000000000000000000000000000000000000000000000000000000081526004016110fa906126a9565b60405180910390fd5b61111761110e6113b2565b858584036113ba565b600191505092915050565b600061113661112f6113b2565b8484611583565b6001905092915050565b6000808211611184576040517f08c379a000000000000000000000000000000000000000000000000000000000815260040161117b90612715565b60405180910390fd5b600061118e611961565b90506000836006546111a091906124e1565b9050600084836111b091906124e1565b9050600060026001876111c3919061210a565b876111ce91906124e1565b6111d89190612552565b9050600081836111e89190611c4f565b90506000816007546111fa91906124e1565b90506000818661120a9190611c4f565b9050670de0b6b3a7640000816112209190612552565b975050505050505050919050565b60065481565b6000600160008473ffffffffffffffffffffffffffffffffffffffff1673ffffffffffffffffffffffffffffffffffffffff16815260200190815260200160002060008373ffffffffffffffffffffffffffffffffffffffff1673ffffffffffffffffffffffffffffffffffffffff16815260200190815260200160002054905092915050565b6112c36113b2565b73ffffffffffffffffffffffffffffffffffffffff166112e1610edb565b73ffffffffffffffffffffffffffffffffffffffff1614611337576040517f08c379a000000000000000000000000000000000000000000000000000000000815260040161132e9061207e565b60405180910390fd5b600073ffffffffffffffffffffffffffffffffffffffff168173ffffffffffffffffffffffffffffffffffffffff16036113a6576040517f08c379a000000000000000000000000000000000000000000000000000000000815260040161139d906127a7565b60405180910390fd5b6113af81611b46565b50565b600033905090565b600073ffffffffffffffffffffffffffffffffffffffff168373ffffffffffffffffffffffffffffffffffffffff1603611429576040517f08c379a000000000000000000000000000000000000000000000000000000000815260040161142090612839565b60405180910390fd5b600073ffffffffffffffffffffffffffffffffffffffff168273ffffffffffffffffffffffffffffffffffffffff1603611498576040517f08c379a000000000000000000000000000000000000000000000000000000000815260040161148f906128cb565b60405180910390fd5b80600160008573ffffffffffffffffffffffffffffffffffffffff1673ffffffffffffffffffffffffffffffffffffffff16815260200190815260200160002060008473ffffffffffffffffffffffffffffffffffffffff1673ffffffffffffffffffffffffffffffffffffffff168152602001908152602001600020819055508173ffffffffffffffffffffffffffffffffffffffff168373ffffffffffffffffffffffffffffffffffffffff167f8c5be1e5ebec7d5bd14f71427d1e84f3dd0314c0f7b2291e5b200ac8c7c3b925836040516115769190611eb3565b60405180910390a3505050565b600073ffffffffffffffffffffffffffffffffffffffff168373ffffffffffffffffffffffffffffffffffffffff16036115f2576040517f08c379a00000000000000000000000000000000000000000000000000000000081526004016115e99061295d565b60405180910390fd5b600073ffffffffffffffffffffffffffffffffffffffff168273ffffffffffffffffffffffffffffffffffffffff1603611661576040517f08c379a0000000000000000000000000000000000000000000000000000000008152600401611658906129ef565b60405180910390fd5b61166c838383611c0c565b60008060008573ffffffffffffffffffffffffffffffffffffffff1673ffffffffffffffffffffffffffffffffffffffff168152602001908152602001600020549050818110156116f2576040517f08c379a00000000000000000000000000000000000000000000000000000000081526004016116e990612a81565b60405180910390fd5b8181036000808673ffffffffffffffffffffffffffffffffffffffff1673ffffffffffffffffffffffffffffffffffffffff16815260200190815260200160002081905550816000808573ffffffffffffffffffffffffffffffffffffffff1673ffffffffffffffffffffffffffffffffffffffff16815260200190815260200160002060008282546117859190611c4f565b925050819055508273ffffffffffffffffffffffffffffffffffffffff168473ffffffffffffffffffffffffffffffffffffffff167fddf252ad1be2c89b69c2b068fc378daa952ba7f163c4a11628f55a4df523b3ef846040516117e99190611eb3565b60405180910390a36117fc848484611c11565b50505050565b600073ffffffffffffffffffffffffffffffffffffffff168273ffffffffffffffffffffffffffffffffffffffff1603611871576040517f08c379a000000000000000000000000000000000000000000000000000000000815260040161186890612aed565b60405180910390fd5b61187d60008383611c0c565b806002600082825461188f9190611c4f565b92505081905550806000808473ffffffffffffffffffffffffffffffffffffffff1673ffffffffffffffffffffffffffffffffffffffff16815260200190815260200160002060008282546118e49190611c4f565b925050819055508173ffffffffffffffffffffffffffffffffffffffff16600073ffffffffffffffffffffffffffffffffffffffff167fddf252ad1be2c89b69c2b068fc378daa952ba7f163c4a11628f55a4df523b3ef836040516119499190611eb3565b60405180910390a361195d60008383611c11565b5050565b600061196b610816565b905090565b600073ffffffffffffffffffffffffffffffffffffffff168273ffffffffffffffffffffffffffffffffffffffff16036119df576040517f08c379a00000000000000000000000000000000000000000000000000000000081526004016119d690612b7f565b60405180910390fd5b6119eb82600083611c0c565b60008060008473ffffffffffffffffffffffffffffffffffffffff1673ffffffffffffffffffffffffffffffffffffffff16815260200190815260200160002054905081811015611a71576040517f08c379a0000000000000000000000000000000000000000000000000000000008152600401611a6890612c11565b60405180910390fd5b8181036000808573ffffffffffffffffffffffffffffffffffffffff1673ffffffffffffffffffffffffffffffffffffffff168152602001908152602001600020819055508160026000828254611ac8919061210a565b92505081905550600073ffffffffffffffffffffffffffffffffffffffff168373ffffffffffffffffffffffffffffffffffffffff167fddf252ad1be2c89b69c2b068fc378daa952ba7f163c4a11628f55a4df523b3ef84604051611b2d9190611eb3565b60405180910390a3611b4183600084611c11565b505050565b6000600560009054906101000a900473ffffffffffffffffffffffffffffffffffffffff16905081600560006101000a81548173ffffffffffffffffffffffffffffffffffffffff021916908373ffffffffffffffffffffffffffffffffffffffff1602179055508173ffffffffffffffffffffffffffffffffffffffff168173ffffffffffffffffffffffffffffffffffffffff167f8be0079c531659141344cd1fd0a4f28419497f9722a3daafe3b4186f6b6457e060405160405180910390a35050565b505050565b505050565b6000819050919050565b7f4e487b7100000000000000000000000000000000000000000000000000000000600052601160045260246000fd5b6000611c5a82611c16565b9150611c6583611c16565b9250828201905080821115611c7d57611c7c611c20565b5b92915050565b600080fd5b611c9181611c16565b8114611c9c57600080fd5b50565b600081359050611cae81611c88565b92915050565b600073ffffffffffffffffffffffffffffffffffffffff82169050919050565b6000611cdf82611cb4565b9050919050565b611cef81611cd4565b8114611cfa57600080fd5b50565b600081359050611d0c81611ce6565b92915050565b60008060408385031215611d2957611d28611c83565b5b6000611d3785828601611c9f565b9250506020611d4885828601611cfd565b9150509250929050565b611d5b81611cd4565b82525050565b6000602082019050611d766000830184611d52565b92915050565b600081519050919050565b600082825260208201905092915050565b60005b83811015611db6578082015181840152602081019050611d9b565b60008484015250505050565b6000601f19601f8301169050919050565b6000611dde82611d7c565b611de88185611d87565b9350611df8818560208601611d98565b611e0181611dc2565b840191505092915050565b60006020820190508181036000830152611e268184611dd3565b905092915050565b60008060408385031215611e4557611e44611c83565b5b6000611e5385828601611cfd565b9250506020611e6485828601611c9f565b9150509250929050565b60008115159050919050565b611e8381611e6e565b82525050565b6000602082019050611e9e6000830184611e7a565b92915050565b611ead81611c16565b82525050565b6000602082019050611ec86000830184611ea4565b92915050565b600080600060608486031215611ee757611ee6611c83565b5b6000611ef586828701611cfd565b9350506020611f0686828701611cfd565b9250506040611f1786828701611c9f565b9150509250925092565b600060ff82169050919050565b611f3781611f21565b82525050565b6000602082019050611f526000830184611f2e565b92915050565b600060208284031215611f6e57611f6d611c83565b5b6000611f7c84828501611c9f565b91505092915050565b600060208284031215611f9b57611f9a611c83565b5b6000611fa984828501611cfd565b91505092915050565b60008060408385031215611fc957611fc8611c83565b5b6000611fd785828601611c9f565b9250506020611fe885828601611c9f565b9150509250929050565b6000806040838503121561200957612008611c83565b5b600061201785828601611cfd565b925050602061202885828601611cfd565b9150509250929050565b7f4f776e61626c653a2063616c6c6572206973206e6f7420746865206f776e6572600082015250565b6000612068602083611d87565b915061207382612032565b602082019050919050565b600060208201905081810360008301526120978161205b565b9050919050565b7f616d6f756e743e72657365727665000000000000000000000000000000000000600082015250565b60006120d4600e83611d87565b91506120df8261209e565b602082019050919050565b60006020820190508181036000830152612103816120c7565b9050919050565b600061211582611c16565b915061212083611c16565b925082820390508181111561213857612137611c20565b5b92915050565b7f4e487b7100000000000000000000000000000000000000000000000000000000600052602260045260246000fd5b6000600282049050600182168061218557607f821691505b6020821081036121985761219761213e565b5b50919050565b7f45524332303a207472616e7366657220616d6f756e742065786365656473206160008201527f6c6c6f77616e6365000000000000000000000000000000000000000000000000602082015250565b60006121fa602883611d87565b91506122058261219e565b604082019050919050565b60006020820190508181036000830152612229816121ed565b9050919050565b7f73656e6420415641580000000000000000000000000000000000000000000000600082015250565b6000612266600983611d87565b915061227182612230565b602082019050919050565b6000602082019050818103600083015261229581612259565b9050919050565b7f736c697070616765000000000000000000000000000000000000000000000000600082015250565b60006122d2600883611d87565b91506122dd8261229c565b602082019050919050565b60006020820190508181036000830152612301816122c5565b9050919050565b7f696e73756666696369656e7420666f7220636f6d707574656420746f6b656e73600082015250565b600061233e602083611d87565b915061234982612308565b602082019050919050565b6000602082019050818103600083015261236d81612331565b9050919050565b60006040820190506123896000830185611ea4565b6123966020830184611ea4565b9392505050565b7f616d6f756e743e30000000000000000000000000000000000000000000000000600082015250565b60006123d3600883611d87565b91506123de8261239d565b602082019050919050565b60006020820190508181036000830152612402816123c6565b9050919050565b7f696e73756666696369656e7420746f6b656e7300000000000000000000000000600082015250565b600061243f601383611d87565b915061244a82612409565b602082019050919050565b6000602082019050818103600083015261246e81612432565b9050919050565b7f73656c6c206c696d697400000000000000000000000000000000000000000000600082015250565b60006124ab600a83611d87565b91506124b682612475565b602082019050919050565b600060208201905081810360008301526124da8161249e565b9050919050565b60006124ec82611c16565b91506124f783611c16565b925082820261250581611c16565b9150828204841483151761251c5761251b611c20565b5b5092915050565b7f4e487b7100000000000000000000000000000000000000000000000000000000600052601260045260246000fd5b600061255d82611c16565b915061256883611c16565b92508261257857612577612523565b5b828204905092915050565b600061258e82611c16565b91507fffffffffffffffffffffffffffffffffffffffffffffffffffffffffffffffff82036125c0576125bf611c20565b5b600182019050919050565b7f696e736f6c76656e740000000000000000000000000000000000000000000000600082015250565b6000612601600983611d87565b915061260c826125cb565b602082019050919050565b60006020820190508181036000830152612630816125f4565b9050919050565b7f45524332303a2064656372656173656420616c6c6f77616e63652062656c6f7760008201527f207a65726f000000000000000000000000000000000000000000000000000000602082015250565b6000612693602583611d87565b915061269e82612637565b604082019050919050565b600060208201905081810360008301526126c281612686565b9050919050565b7f6e3e300000000000000000000000000000000000000000000000000000000000600082015250565b60006126ff600383611d87565b915061270a826126c9565b602082019050919050565b6000602082019050818103600083015261272e816126f2565b9050919050565b7f4f776e61626c653a206e6577206f776e657220697320746865207a65726f206160008201527f6464726573730000000000000000000000000000000000000000000000000000602082015250565b6000612791602683611d87565b915061279c82612735565b604082019050919050565b600060208201905081810360008301526127c081612784565b9050919050565b7f45524332303a20617070726f76652066726f6d20746865207a65726f2061646460008201527f7265737300000000000000000000000000000000000000000000000000000000602082015250565b6000612823602483611d87565b915061282e826127c7565b604082019050919050565b6000602082019050818103600083015261285281612816565b9050919050565b7f45524332303a20617070726f766520746f20746865207a65726f20616464726560008201527f7373000000000000000000000000000000000000000000000000000000000000602082015250565b60006128b5602283611d87565b91506128c082612859565b604082019050919050565b600060208201905081810360008301526128e4816128a8565b9050919050565b7f45524332303a207472616e736665722066726f6d20746865207a65726f20616460008201527f6472657373000000000000000000000000000000000000000000000000000000602082015250565b6000612947602583611d87565b9150612952826128eb565b604082019050919050565b600060208201905081810360008301526129768161293a565b9050919050565b7f45524332303a207472616e7366657220746f20746865207a65726f206164647260008201527f6573730000000000000000000000000000000000000000000000000000000000602082015250565b60006129d9602383611d87565b91506129e48261297d565b604082019050919050565b60006020820190508181036000830152612a08816129cc565b9050919050565b7f45524332303a207472616e7366657220616d6f756e742065786365656473206260008201527f616c616e63650000000000000000000000000000000000000000000000000000602082015250565b6000612a6b602683611d87565b9150612a7682612a0f565b604082019050919050565b60006020820190508181036000830152612a9a81612a5e565b9050919050565b7f45524332303a206d696e7420746f20746865207a65726f206164647265737300600082015250565b6000612ad7601f83611d87565b9150612ae282612aa1565b602082019050919050565b60006020820190508181036000830152612b0681612aca565b9050919050565b7f45524332303a206275726e2066726f6d20746865207a65726f2061646472657360008201527f7300000000000000000000000000000000000000000000000000000000000000602082015250565b6000612b69602183611d87565b9150612b7482612b0d565b604082019050919050565b60006020820190508181036000830152612b9881612b5c565b9050919050565b7f45524332303a206275726e20616d6f756e7420657863656564732062616c616e60008201527f6365000000000000000000000000000000000000000000000000000000000000602082015250565b6000612bfb602283611d87565b9150612c0682612b9f565b604082019050919050565b60006020820190508181036000830152612c2a81612bee565b905091905056fea264697066735822122099db5a411d9fbf4decc9e3c8a2c1baff2d2ee4a738ee6bf05d83346680e3212364736f6c63430008110033",
  "linkReferences": {},
  "deployedLinkReferences": {}
}