{
  "_format": "hh-sol-artifact-1",
  "contractName": "CreatorMarketplace",
  "sourceName": "contracts/CreatorMarketplace.sol",
  "abi": [
    {
      "inputs": [
        {
          "internalType": "address",
          "name": "initialOwner",
          "type": "address"
        }
      ],
      "stateMutability": "nonpayable",
      "type": "constructor"
    },
    {
      "anonymous": false,
      "inputs": [
        {
          "indexed": false,
          "internalType": "uint256",
          "name": "bookingId",
          "type": "uint256"
        },
        {
          "indexed": false,
          "internalType": "address",
          "name": "buyer",
          "type": "address"
        },
        {
          "indexed": false,
          "internalType": "address",
          "name": "creator",
          "type": "address"
        },
        {
          "indexed": false,
          "internalType": "uint256",
          "name": "startAt",
          "type": "uint256"
        }
      ],
      "name": "BookingCreated",
      "type": "event"
    },
    {
      "anonymous": false,
      "inputs": [
        {
          "indexed": false,
          "internalType": "uint256",
          "name": "bookingId",
          "type": "uint256"
        }
      ],
      "name": "BookingReleased",
      "type": "event"
    },
    {
      "anonymous": false,
      "inputs": [
        {
          "indexed": true,
          "internalType": "bytes32",
          "name": "id",
          "type": "bytes32"
        },
        {
          "indexed": true,
          "internalType": "address",
          "name": "buyer",
          "type": "address"
        }
      ],
      "name": "ContentAccessed",
      "type": "event"
    },
    {
      "anonymous": false,
      "inputs": [
        {
          "indexed": true,
          "internalType": "bytes32",
          "name": "id",
          "type": "bytes32"
        },
        {
          "indexed": true,
          "internalType": "address",
          "name": "creator",
          "type": "address"
        },
        {
          "indexed": false,
          "internalType": "address",
          "name": "token",
          "type": "address"
        },
        {
          "indexed": false,
          "internalType": "uint256",
          "name": "price",
          "type": "uint256"
        }
      ],
      "name": "ContentRegistered",
      "type": "event"
    },
    {
      "anonymous": false,
      "inputs": [
        {
          "indexed": true,
          "internalType": "address",
          "name": "previousOwner",
          "type": "address"
        },
        {
          "indexed": true,
          "internalType": "address",
          "name": "newOwner",
          "type": "address"
        }
      ],
      "name": "OwnershipTransferred",
      "type": "event"
    },
    {
      "inputs": [],
      "name": "bookingCount",
      "outputs": [
        {
          "internalType": "uint256",
          "name": "",
          "type": "uint256"
        }
      ],
      "stateMutability": "view",
      "type": "function"
    },
    {
      "inputs": [
        {
          "internalType": "uint256",
          "name": "",
          "type": "uint256"
        }
      ],
      "name": "bookings",
      "outputs": [
        {
          "internalType": "address",
          "name": "buyer",
          "type": "address"
        },
        {
          "internalType": "address",
          "name": "creator",
          "type": "address"
        },
        {
          "internalType": "uint256",
          "name": "startAt",
          "type": "uint256"
        },
        {
          "internalType": "uint256",
          "name": "duration",
          "type": "uint256"
        },
        {
          "internalType": "uint256",
          "name": "amount",
          "type": "uint256"
        },
        {
          "internalType": "bool",
          "name": "released",
          "type": "bool"
        }
      ],
      "stateMutability": "view",
      "type": "function"
    },
    {
      "inputs": [
        {
          "internalType": "string",
          "name": "contentIdStr",
          "type": "string"
        },
        {
          "internalType": "address",
          "name": "creatorToken",
          "type": "address"
        }
      ],
      "name": "buyAccess",
      "outputs": [],
      "stateMutability": "nonpayable",
      "type": "function"
    },
    {
      "inputs": [
        {
          "internalType": "bytes32",
          "name": "",
          "type": "bytes32"
        }
      ],
      "name": "contents",
      "outputs": [
        {
          "internalType": "address",
          "name": "creatorToken",
          "type": "address"
        },
        {
          "internalType": "address",
          "name": "creator",
          "type": "address"
        },
        {
          "internalType": "string",
          "name": "ipfsHash",
          "type": "string"
        },
        {
          "internalType": "uint256",
          "name": "priceInTokens",
          "type": "uint256"
        },
        {
          "internalType": "bool",
          "name": "exists",
          "type": "bool"
        }
      ],
      "stateMutability": "view",
      "type": "function"
    },
    {
      "inputs": [
        {
          "internalType": "address",
          "name": "creatorToken",
          "type": "address"
        },
        {
          "internalType": "address",
          "name": "creator",
          "type": "address"
        },
        {
          "internalType": "uint256",
          "name": "startAt",
          "type": "uint256"
        },
        {
          "internalType": "uint256",
          "name": "duration",
          "type": "uint256"
        },
        {
          "internalType": "uint256",
          "name": "amountInTokens",
          "type": "uint256"
        }
      ],
      "name": "createBooking",
      "outputs": [
        {
          "internalType": "uint256",
          "name": "",
          "type": "uint256"
        }
      ],
      "stateMutability": "nonpayable",
      "type": "function"
    },
    {
      "inputs": [],
      "name": "owner",
      "outputs": [
        {
          "internalType": "address",
          "name": "",
          "type": "address"
        }
      ],
      "stateMutability": "view",
      "type": "function"
    },
    {
      "inputs": [
        {
          "internalType": "string",
          "name": "contentIdStr",
          "type": "string"
        },
        {
          "internalType": "address",
          "name": "creatorToken",
          "type": "address"
        },
        {
          "internalType": "string",
          "name": "ipfsHash",
          "type": "string"
        },
        {
          "internalType": "uint256",
          "name": "priceInTokens",
          "type": "uint256"
        }
      ],
      "name": "registerContent",
      "outputs": [],
      "stateMutability": "nonpayable",
      "type": "function"
    },
    {
      "inputs": [
        {
          "internalType": "uint256",
          "name": "bookingId",
          "type": "uint256"
        }
      ],
      "name": "releaseBooking",
      "outputs": [],
      "stateMutability": "nonpayable",
      "type": "function"
    },
    {
      "inputs": [],
      "name": "renounceOwnership",
      "outputs": [],
      "stateMutability": "nonpayable",
      "type": "function"
    },
    {
      "inputs": [
        {
          "internalType": "address",
          "name": "newOwner",
          "type": "address"
        }
      ],
      "name": "transferOwnership",
      "outputs": [],
      "stateMutability": "nonpayable",
      "type": "function"
    },
    {
      "inputs": [
        {
          "internalType": "address",
          "name": "token",
          "type": "address"
        },
        {
          "internalType": "uint256",
          "name": "amount",
          "type": "uint256"
        },
        {
          "internalType": "address",
          "name": "to",
          "type": "address"
        }
      ],
      "name": "withdrawERC20",
      "outputs": [],
      "stateMutability": "nonpayable",
      "type": "function"
    }
  ],
  "bytecode": "0x60806040523480156200001157600080fd5b506040516200232a3803806200232a8339818101604052810190620000379190620002e3565b620000576200004b6200006f60201b60201c565b6200007760201b60201c565b62000068816200013b60201b60201c565b5062000430565b600033905090565b60008060009054906101000a900473ffffffffffffffffffffffffffffffffffffffff169050816000806101000a81548173ffffffffffffffffffffffffffffffffffffffff021916908373ffffffffffffffffffffffffffffffffffffffff1602179055508173ffffffffffffffffffffffffffffffffffffffff168173ffffffffffffffffffffffffffffffffffffffff167f8be0079c531659141344cd1fd0a4f28419497f9722a3daafe3b4186f6b6457e060405160405180910390a35050565b6200014b6200006f60201b60201c565b73ffffffffffffffffffffffffffffffffffffffff16620001716200025060201b60201c565b73ffffffffffffffffffffffffffffffffffffffff1614620001ca576040517f08c379a0000000000000000000000000000000000000000000000000000000008152600401620001c19062000376565b60405180910390fd5b600073ffffffffffffffffffffffffffffffffffffffff168173ffffffffffffffffffffffffffffffffffffffff16036200023c576040517f08c379a000000000000000000000000000000000000000000000000000000000815260040162000233906200040e565b60405180910390fd5b6200024d816200007760201b60201c565b50565b60008060009054906101000a900473ffffffffffffffffffffffffffffffffffffffff16905090565b600080fd5b600073ffffffffffffffffffffffffffffffffffffffff82169050919050565b6000620002ab826200027e565b9050919050565b620002bd816200029e565b8114620002c957600080fd5b50565b600081519050620002dd81620002b2565b92915050565b600060208284031215620002fc57620002fb62000279565b5b60006200030c84828501620002cc565b91505092915050565b600082825260208201905092915050565b7f4f776e61626c653a2063616c6c6572206973206e6f7420746865206f776e6572600082015250565b60006200035e60208362000315565b91506200036b8262000326565b602082019050919050565b6000602082019050818103600083015262000391816200034f565b9050919050565b7f4f776e61626c653a206e6577206f776e657220697320746865207a65726f206160008201527f6464726573730000000000000000000000000000000000000000000000000000602082015250565b6000620003f660268362000315565b9150620004038262000398565b604082019050919050565b600060208201905081810360008301526200042981620003e7565b9050919050565b611eea80620004406000396000f3fe608060405234801561001057600080fd5b50600436106100a95760003560e01c80639dc3d025116100715780639dc3d02514610145578063cd0b395814610161578063ce04bfa714610191578063df001e1f146101ad578063f20ca12c146101c9578063f2fde38b146101fd576100a9565b80631dab301e146100ae5780635fc3ea0b146100e35780636d759172146100ff578063715018a61461011d5780638da5cb5b14610127575b600080fd5b6100c860048036038101906100c391906110ec565b610219565b6040516100da96959493929190611184565b60405180910390f35b6100fd60048036038101906100f89190611211565b6102a2565b005b6101076103a2565b6040516101149190611264565b60405180910390f35b6101256103a8565b005b61012f610430565b60405161013c919061127f565b60405180910390f35b61015f600480360381019061015a91906110ec565b610459565b005b61017b6004803603810190610176919061129a565b610700565b6040516101889190611264565b60405180910390f35b6101ab60048036038101906101a6919061137a565b610967565b005b6101c760048036038101906101c29190611421565b610bd2565b005b6101e360048036038101906101de91906114b7565b610da1565b6040516101f4959493929190611574565b60405180910390f35b610217600480360381019061021291906115ce565b610eac565b005b60036020528060005260406000206000915090508060000160009054906101000a900473ffffffffffffffffffffffffffffffffffffffff16908060010160009054906101000a900473ffffffffffffffffffffffffffffffffffffffff16908060020154908060030154908060040154908060050160009054906101000a900460ff16905086565b6102aa610fa3565b73ffffffffffffffffffffffffffffffffffffffff166102c8610430565b73ffffffffffffffffffffffffffffffffffffffff161461031e576040517f08c379a000000000000000000000000000000000000000000000000000000000815260040161031590611647565b60405180910390fd5b8273ffffffffffffffffffffffffffffffffffffffff1663a9059cbb82846040518363ffffffff1660e01b8152600401610359929190611667565b6020604051808303816000875af1158015610378573d6000803e3d6000fd5b505050506040513d601f19601f8201168201806040525081019061039c91906116bc565b50505050565b60025481565b6103b0610fa3565b73ffffffffffffffffffffffffffffffffffffffff166103ce610430565b73ffffffffffffffffffffffffffffffffffffffff1614610424576040517f08c379a000000000000000000000000000000000000000000000000000000000815260040161041b90611647565b60405180910390fd5b61042e6000610fab565b565b60008060009054906101000a900473ffffffffffffffffffffffffffffffffffffffff16905090565b60006003600083815260200190815260200160002090508060050160009054906101000a900460ff16156104c2576040517f08c379a00000000000000000000000000000000000000000000000000000000081526004016104b990611735565b60405180910390fd5b8060010160009054906101000a900473ffffffffffffffffffffffffffffffffffffffff1673ffffffffffffffffffffffffffffffffffffffff163373ffffffffffffffffffffffffffffffffffffffff1614806105525750610523610430565b73ffffffffffffffffffffffffffffffffffffffff163373ffffffffffffffffffffffffffffffffffffffff16145b610591576040517f08c379a0000000000000000000000000000000000000000000000000000000008152600401610588906117a1565b60405180910390fd5b60018160050160006101000a81548160ff02191690831515021790555060006105dd8260010160009054906101000a900473ffffffffffffffffffffffffffffffffffffffff1661106f565b90508073ffffffffffffffffffffffffffffffffffffffff1663a9059cbb8360010160009054906101000a900473ffffffffffffffffffffffffffffffffffffffff1684600401546040518363ffffffff1660e01b8152600401610642929190611667565b6020604051808303816000875af1158015610661573d6000803e3d6000fd5b505050506040513d601f19601f8201168201806040525081019061068591906116bc565b6106c4576040517f08c379a00000000000000000000000000000000000000000000000000000000081526004016106bb9061180d565b60405180910390fd5b7f18c21b5ba24acb5cda0d7369a57a2f689310d4d650b5d97dc7357f689519ae09836040516106f39190611264565b60405180910390a1505050565b6000808690508073ffffffffffffffffffffffffffffffffffffffff166323b872dd3330866040518463ffffffff1660e01b81526004016107439392919061182d565b6020604051808303816000875af1158015610762573d6000803e3d6000fd5b505050506040513d601f19601f8201168201806040525081019061078691906116bc565b6107c5576040517f08c379a00000000000000000000000000000000000000000000000000000000081526004016107bc9061180d565b60405180910390fd5b60006002600081546107d690611893565b91905081905590506040518060c001604052803373ffffffffffffffffffffffffffffffffffffffff1681526020018873ffffffffffffffffffffffffffffffffffffffff168152602001878152602001868152602001858152602001600015158152506003600083815260200190815260200160002060008201518160000160006101000a81548173ffffffffffffffffffffffffffffffffffffffff021916908373ffffffffffffffffffffffffffffffffffffffff16021790555060208201518160010160006101000a81548173ffffffffffffffffffffffffffffffffffffffff021916908373ffffffffffffffffffffffffffffffffffffffff16021790555060408201518160020155606082015181600301556080820151816004015560a08201518160050160006101000a81548160ff0219169083151502179055509050507f56773a3b115bb786d537657ef440c187c59ebc20903ac37482eb3718897e01238133898960405161095194939291906118db565b60405180910390a1809250505095945050505050565b600086868660405160200161097e939291906119a7565b6040516020818303038152906040528051906020012090506001600082815260200190815260200160002060040160009054906101000a900460ff16156109fa576040517f08c379a00000000000000000000000000000000000000000000000000000000081526004016109f190611a1d565b60405180910390fd5b6040518060a001604052808673ffffffffffffffffffffffffffffffffffffffff1681526020013373ffffffffffffffffffffffffffffffffffffffff16815260200185858080601f016020809104026020016040519081016040528093929190818152602001838380828437600081840152601f19601f820116905080830192505050505050508152602001838152602001600115158152506001600083815260200190815260200160002060008201518160000160006101000a81548173ffffffffffffffffffffffffffffffffffffffff021916908373ffffffffffffffffffffffffffffffffffffffff16021790555060208201518160010160006101000a81548173ffffffffffffffffffffffffffffffffffffffff021916908373ffffffffffffffffffffffffffffffffffffffff1602179055506040820151816002019081610b4a9190611c78565b506060820151816003015560808201518160040160006101000a81548160ff0219169083151502179055509050503373ffffffffffffffffffffffffffffffffffffffff16817f0e984c5c25c7d0b5113dc89c2ce5c25c20a8deb55915f96173528705f602391b8785604051610bc1929190611667565b60405180910390a350505050505050565b6000838383604051602001610be9939291906119a7565b60405160208183030381529060405280519060200120905060006001600083815260200190815260200160002090508060040160009054906101000a900460ff16610c69576040517f08c379a0000000000000000000000000000000000000000000000000000000008152600401610c6090611d96565b60405180910390fd5b60008160000160009054906101000a900473ffffffffffffffffffffffffffffffffffffffff1690508073ffffffffffffffffffffffffffffffffffffffff166323b872dd333085600301546040518463ffffffff1660e01b8152600401610cd39392919061182d565b6020604051808303816000875af1158015610cf2573d6000803e3d6000fd5b505050506040513d601f19601f82011682018060405250810190610d1691906116bc565b610d55576040517f08c379a0000000000000000000000000000000000000000000000000000000008152600401610d4c9061180d565b60405180910390fd5b3373ffffffffffffffffffffffffffffffffffffffff16837f142e4a85665df73196890c9ab2c79746db22f47dd09dc4a22d70d92a1ce1246f60405160405180910390a3505050505050565b60016020528060005260406000206000915090508060000160009054906101000a900473ffffffffffffffffffffffffffffffffffffffff16908060010160009054906101000a900473ffffffffffffffffffffffffffffffffffffffff1690806002018054610e1090611a9b565b80601f0160208091040260200160405190810160405280929190818152602001828054610e3c90611a9b565b8015610e895780601f10610e5e57610100808354040283529160200191610e89565b820191906000526020600020905b815481529060010190602001808311610e6c57829003601f168201915b5050505050908060030154908060040160009054906101000a900460ff16905085565b610eb4610fa3565b73ffffffffffffffffffffffffffffffffffffffff16610ed2610430565b73ffffffffffffffffffffffffffffffffffffffff1614610f28576040517f08c379a0000000000000000000000000000000000000000000000000000000008152600401610f1f90611647565b60405180910390fd5b600073ffffffffffffffffffffffffffffffffffffffff168173ffffffffffffffffffffffffffffffffffffffff1603610f97576040517f08c379a0000000000000000000000000000000000000000000000000000000008152600401610f8e90611e28565b60405180910390fd5b610fa081610fab565b50565b600033905090565b60008060009054906101000a900473ffffffffffffffffffffffffffffffffffffffff169050816000806101000a81548173ffffffffffffffffffffffffffffffffffffffff021916908373ffffffffffffffffffffffffffffffffffffffff1602179055508173ffffffffffffffffffffffffffffffffffffffff168173ffffffffffffffffffffffffffffffffffffffff167f8be0079c531659141344cd1fd0a4f28419497f9722a3daafe3b4186f6b6457e060405160405180910390a35050565b60006040517f08c379a00000000000000000000000000000000000000000000000000000000081526004016110a390611e94565b60405180910390fd5b600080fd5b600080fd5b6000819050919050565b6110c9816110b6565b81146110d457600080fd5b50565b6000813590506110e6816110c0565b92915050565b600060208284031215611102576111016110ac565b5b6000611110848285016110d7565b91505092915050565b600073ffffffffffffffffffffffffffffffffffffffff82169050919050565b600061114482611119565b9050919050565b61115481611139565b82525050565b611163816110b6565b82525050565b60008115159050919050565b61117e81611169565b82525050565b600060c082019050611199600083018961114b565b6111a6602083018861114b565b6111b3604083018761115a565b6111c0606083018661115a565b6111cd608083018561115a565b6111da60a0830184611175565b979650505050505050565b6111ee81611139565b81146111f957600080fd5b50565b60008135905061120b816111e5565b92915050565b60008060006060848603121561122a576112296110ac565b5b6000611238868287016111fc565b9350506020611249868287016110d7565b925050604061125a868287016111fc565b9150509250925092565b6000602082019050611279600083018461115a565b92915050565b6000602082019050611294600083018461114b565b92915050565b600080600080600060a086880312156112b6576112b56110ac565b5b60006112c4888289016111fc565b95505060206112d5888289016111fc565b94505060406112e6888289016110d7565b93505060606112f7888289016110d7565b9250506080611308888289016110d7565b9150509295509295909350565b600080fd5b600080fd5b600080fd5b60008083601f84011261133a57611339611315565b5b8235905067ffffffffffffffff8111156113575761135661131a565b5b6020830191508360018202830111156113735761137261131f565b5b9250929050565b60008060008060008060808789031215611397576113966110ac565b5b600087013567ffffffffffffffff8111156113b5576113b46110b1565b5b6113c189828a01611324565b965096505060206113d489828a016111fc565b945050604087013567ffffffffffffffff8111156113f5576113f46110b1565b5b61140189828a01611324565b9350935050606061141489828a016110d7565b9150509295509295509295565b60008060006040848603121561143a576114396110ac565b5b600084013567ffffffffffffffff811115611458576114576110b1565b5b61146486828701611324565b93509350506020611477868287016111fc565b9150509250925092565b6000819050919050565b61149481611481565b811461149f57600080fd5b50565b6000813590506114b18161148b565b92915050565b6000602082840312156114cd576114cc6110ac565b5b60006114db848285016114a2565b91505092915050565b600081519050919050565b600082825260208201905092915050565b60005b8381101561151e578082015181840152602081019050611503565b60008484015250505050565b6000601f19601f8301169050919050565b6000611546826114e4565b61155081856114ef565b9350611560818560208601611500565b6115698161152a565b840191505092915050565b600060a082019050611589600083018861114b565b611596602083018761114b565b81810360408301526115a8818661153b565b90506115b7606083018561115a565b6115c46080830184611175565b9695505050505050565b6000602082840312156115e4576115e36110ac565b5b60006115f2848285016111fc565b91505092915050565b7f4f776e61626c653a2063616c6c6572206973206e6f7420746865206f776e6572600082015250565b60006116316020836114ef565b915061163c826115fb565b602082019050919050565b6000602082019050818103600083015261166081611624565b9050919050565b600060408201905061167c600083018561114b565b611689602083018461115a565b9392505050565b61169981611169565b81146116a457600080fd5b50565b6000815190506116b681611690565b92915050565b6000602082840312156116d2576116d16110ac565b5b60006116e0848285016116a7565b91505092915050565b7f616c72656164792072656c656173656400000000000000000000000000000000600082015250565b600061171f6010836114ef565b915061172a826116e9565b602082019050919050565b6000602082019050818103600083015261174e81611712565b9050919050565b7f6e6f7420616c6c6f776564000000000000000000000000000000000000000000600082015250565b600061178b600b836114ef565b915061179682611755565b602082019050919050565b600060208201905081810360008301526117ba8161177e565b9050919050565b7f7472616e73666572206661696c65640000000000000000000000000000000000600082015250565b60006117f7600f836114ef565b9150611802826117c1565b602082019050919050565b60006020820190508181036000830152611826816117ea565b9050919050565b6000606082019050611842600083018661114b565b61184f602083018561114b565b61185c604083018461115a565b949350505050565b7f4e487b7100000000000000000000000000000000000000000000000000000000600052601160045260246000fd5b600061189e826110b6565b91507fffffffffffffffffffffffffffffffffffffffffffffffffffffffffffffffff82036118d0576118cf611864565b5b600182019050919050565b60006080820190506118f0600083018761115a565b6118fd602083018661114b565b61190a604083018561114b565b611917606083018461115a565b95945050505050565b600081905092915050565b82818337600083830152505050565b60006119468385611920565b935061195383858461192b565b82840190509392505050565b60008160601b9050919050565b60006119778261195f565b9050919050565b60006119898261196c565b9050919050565b6119a161199c82611139565b61197e565b82525050565b60006119b482858761193a565b91506119c08284611990565b601482019150819050949350505050565b7f6578697374730000000000000000000000000000000000000000000000000000600082015250565b6000611a076006836114ef565b9150611a12826119d1565b602082019050919050565b60006020820190508181036000830152611a36816119fa565b9050919050565b7f4e487b7100000000000000000000000000000000000000000000000000000000600052604160045260246000fd5b7f4e487b7100000000000000000000000000000000000000000000000000000000600052602260045260246000fd5b60006002820490506001821680611ab357607f821691505b602082108103611ac657611ac5611a6c565b5b50919050565b60008190508160005260206000209050919050565b60006020601f8301049050919050565b600082821b905092915050565b600060088302611b2e7fffffffffffffffffffffffffffffffffffffffffffffffffffffffffffffffff82611af1565b611b388683611af1565b95508019841693508086168417925050509392505050565b6000819050919050565b6000611b75611b70611b6b846110b6565b611b50565b6110b6565b9050919050565b6000819050919050565b611b8f83611b5a565b611ba3611b9b82611b7c565b848454611afe565b825550505050565b600090565b611bb8611bab565b611bc3818484611b86565b505050565b5b81811015611be757611bdc600082611bb0565b600181019050611bc9565b5050565b601f821115611c2c57611bfd81611acc565b611c0684611ae1565b81016020851015611c15578190505b611c29611c2185611ae1565b830182611bc8565b50505b505050565b600082821c905092915050565b6000611c4f60001984600802611c31565b1980831691505092915050565b6000611c688383611c3e565b9150826002028217905092915050565b611c81826114e4565b67ffffffffffffffff811115611c9a57611c99611a3d565b5b611ca48254611a9b565b611caf828285611beb565b600060209050601f831160018114611ce25760008415611cd0578287015190505b611cda8582611c5c565b865550611d42565b601f198416611cf086611acc565b60005b82811015611d1857848901518255600182019150602085019450602081019050611cf3565b86831015611d355784890151611d31601f891682611c3e565b8355505b6001600288020188555050505b505050505050565b7f6e6f20636f6e74656e7400000000000000000000000000000000000000000000600082015250565b6000611d80600a836114ef565b9150611d8b82611d4a565b602082019050919050565b60006020820190508181036000830152611daf81611d73565b9050919050565b7f4f776e61626c653a206e6577206f776e657220697320746865207a65726f206160008201527f6464726573730000000000000000000000000000000000000000000000000000602082015250565b6000611e126026836114ef565b9150611e1d82611db6565b604082019050919050565b60006020820190508181036000830152611e4181611e05565b9050919050565b7f696d706c656d656e74206d617070696e6720696e2070726f6400000000000000600082015250565b6000611e7e6019836114ef565b9150611e8982611e48565b602082019050919050565b60006020820190508181036000830152611ead81611e71565b905091905056fea264697066735822122034f7705c7cddb275e9373c268cf89beb518d165e79a847f9682af04da2e1ddf764736f6c63430008110033",
  "linkReferences": {},
  "deployedLinkReferences": {}
}